{
    "contractName": "Token",
    "abi": [
        {
            "inputs": [
                {
                    "internalType": "uint256",
                    "name": "initSupply",
                    "type": "uint256"
                },
                {
                    "internalType": "address",
                    "name": "trustedForwarder",
                    "type": "address"
                }
            ],
            "stateMutability": "nonpayable",
            "type": "constructor"
        },
        {
            "inputs": [],
            "name": "ECDSAInvalidSignature",
            "type": "error"
        },
        {
            "inputs": [
                {
                    "internalType": "uint256",
                    "name": "length",
                    "type": "uint256"
                }
            ],
            "name": "ECDSAInvalidSignatureLength",
            "type": "error"
        },
        {
            "inputs": [
                {
                    "internalType": "bytes32",
                    "name": "s",
                    "type": "bytes32"
                }
            ],
            "name": "ECDSAInvalidSignatureS",
            "type": "error"
        },
        {
            "inputs": [
                {
                    "internalType": "address",
                    "name": "spender",
                    "type": "address"
                },
                {
                    "internalType": "uint256",
                    "name": "allowance",
                    "type": "uint256"
                },
                {
                    "internalType": "uint256",
                    "name": "needed",
                    "type": "uint256"
                }
            ],
            "name": "ERC20InsufficientAllowance",
            "type": "error"
        },
        {
            "inputs": [
                {
                    "internalType": "address",
                    "name": "sender",
                    "type": "address"
                },
                {
                    "internalType": "uint256",
                    "name": "balance",
                    "type": "uint256"
                },
                {
                    "internalType": "uint256",
                    "name": "needed",
                    "type": "uint256"
                }
            ],
            "name": "ERC20InsufficientBalance",
            "type": "error"
        },
        {
            "inputs": [
                {
                    "internalType": "address",
                    "name": "approver",
                    "type": "address"
                }
            ],
            "name": "ERC20InvalidApprover",
            "type": "error"
        },
        {
            "inputs": [
                {
                    "internalType": "address",
                    "name": "receiver",
                    "type": "address"
                }
            ],
            "name": "ERC20InvalidReceiver",
            "type": "error"
        },
        {
            "inputs": [
                {
                    "internalType": "address",
                    "name": "sender",
                    "type": "address"
                }
            ],
            "name": "ERC20InvalidSender",
            "type": "error"
        },
        {
            "inputs": [
                {
                    "internalType": "address",
                    "name": "spender",
                    "type": "address"
                }
            ],
            "name": "ERC20InvalidSpender",
            "type": "error"
        },
        {
            "inputs": [
                {
                    "internalType": "uint256",
                    "name": "deadline",
                    "type": "uint256"
                }
            ],
            "name": "ERC2612ExpiredSignature",
            "type": "error"
        },
        {
            "inputs": [
                {
                    "internalType": "address",
                    "name": "signer",
                    "type": "address"
                },
                {
                    "internalType": "address",
                    "name": "owner",
                    "type": "address"
                }
            ],
            "name": "ERC2612InvalidSigner",
            "type": "error"
        },
        {
            "inputs": [
                {
                    "internalType": "address",
                    "name": "account",
                    "type": "address"
                },
                {
                    "internalType": "uint256",
                    "name": "currentNonce",
                    "type": "uint256"
                }
            ],
            "name": "InvalidAccountNonce",
            "type": "error"
        },
        {
            "inputs": [],
            "name": "InvalidShortString",
            "type": "error"
        },
        {
            "inputs": [
                {
                    "internalType": "string",
                    "name": "str",
                    "type": "string"
                }
            ],
            "name": "StringTooLong",
            "type": "error"
        },
        {
            "anonymous": false,
            "inputs": [
                {
                    "indexed": true,
                    "internalType": "address",
                    "name": "owner",
                    "type": "address"
                },
                {
                    "indexed": true,
                    "internalType": "address",
                    "name": "spender",
                    "type": "address"
                },
                {
                    "indexed": false,
                    "internalType": "uint256",
                    "name": "value",
                    "type": "uint256"
                }
            ],
            "name": "Approval",
            "type": "event"
        },
        {
            "anonymous": false,
            "inputs": [],
            "name": "EIP712DomainChanged",
            "type": "event"
        },
        {
            "anonymous": false,
            "inputs": [
                {
                    "indexed": true,
                    "internalType": "address",
                    "name": "from",
                    "type": "address"
                },
                {
                    "indexed": true,
                    "internalType": "address",
                    "name": "to",
                    "type": "address"
                },
                {
                    "indexed": false,
                    "internalType": "uint256",
                    "name": "value",
                    "type": "uint256"
                }
            ],
            "name": "Transfer",
            "type": "event"
        },
        {
            "inputs": [],
            "name": "DOMAIN_SEPARATOR",
            "outputs": [
                {
                    "internalType": "bytes32",
                    "name": "",
                    "type": "bytes32"
                }
            ],
            "stateMutability": "view",
            "type": "function"
        },
        {
            "inputs": [
                {
                    "internalType": "address",
                    "name": "owner",
                    "type": "address"
                },
                {
                    "internalType": "address",
                    "name": "spender",
                    "type": "address"
                }
            ],
            "name": "allowance",
            "outputs": [
                {
                    "internalType": "uint256",
                    "name": "",
                    "type": "uint256"
                }
            ],
            "stateMutability": "view",
            "type": "function"
        },
        {
            "inputs": [
                {
                    "internalType": "address",
                    "name": "spender",
                    "type": "address"
                },
                {
                    "internalType": "uint256",
                    "name": "value",
                    "type": "uint256"
                }
            ],
            "name": "approve",
            "outputs": [
                {
                    "internalType": "bool",
                    "name": "",
                    "type": "bool"
                }
            ],
            "stateMutability": "nonpayable",
            "type": "function"
        },
        {
            "inputs": [
                {
                    "internalType": "address",
                    "name": "account",
                    "type": "address"
                }
            ],
            "name": "balanceOf",
            "outputs": [
                {
                    "internalType": "uint256",
                    "name": "",
                    "type": "uint256"
                }
            ],
            "stateMutability": "view",
            "type": "function"
        },
        {
            "inputs": [
                {
                    "internalType": "address",
                    "name": "owner",
                    "type": "address"
                },
                {
                    "internalType": "address",
                    "name": "spender",
                    "type": "address"
                },
                {
                    "internalType": "uint256",
                    "name": "amount",
                    "type": "uint256"
                },
                {
                    "internalType": "uint256",
                    "name": "deadline",
                    "type": "uint256"
                },
                {
                    "internalType": "uint8",
                    "name": "v",
                    "type": "uint8"
                },
                {
                    "internalType": "bytes32",
                    "name": "r",
                    "type": "bytes32"
                },
                {
                    "internalType": "bytes32",
                    "name": "s",
                    "type": "bytes32"
                }
            ],
            "name": "callTransfer",
            "outputs": [],
            "stateMutability": "nonpayable",
            "type": "function"
        },
        {
            "inputs": [],
            "name": "decimals",
            "outputs": [
                {
                    "internalType": "uint8",
                    "name": "",
                    "type": "uint8"
                }
            ],
            "stateMutability": "view",
            "type": "function"
        },
        {
            "inputs": [],
            "name": "eip712Domain",
            "outputs": [
                {
                    "internalType": "bytes1",
                    "name": "fields",
                    "type": "bytes1"
                },
                {
                    "internalType": "string",
                    "name": "name",
                    "type": "string"
                },
                {
                    "internalType": "string",
                    "name": "version",
                    "type": "string"
                },
                {
                    "internalType": "uint256",
                    "name": "chainId",
                    "type": "uint256"
                },
                {
                    "internalType": "address",
                    "name": "verifyingContract",
                    "type": "address"
                },
                {
                    "internalType": "bytes32",
                    "name": "salt",
                    "type": "bytes32"
                },
                {
                    "internalType": "uint256[]",
                    "name": "extensions",
                    "type": "uint256[]"
                }
            ],
            "stateMutability": "view",
            "type": "function"
        },
        {
            "inputs": [],
            "name": "forwarder",
            "outputs": [
                {
                    "internalType": "address",
                    "name": "",
                    "type": "address"
                }
            ],
            "stateMutability": "view",
            "type": "function"
        },
        {
            "inputs": [],
            "name": "name",
            "outputs": [
                {
                    "internalType": "string",
                    "name": "",
                    "type": "string"
                }
            ],
            "stateMutability": "view",
            "type": "function"
        },
        {
            "inputs": [
                {
                    "internalType": "address",
                    "name": "owner",
                    "type": "address"
                }
            ],
            "name": "nonces",
            "outputs": [
                {
                    "internalType": "uint256",
                    "name": "",
                    "type": "uint256"
                }
            ],
            "stateMutability": "view",
            "type": "function"
        },
        {
            "inputs": [
                {
                    "internalType": "address",
                    "name": "owner",
                    "type": "address"
                },
                {
                    "internalType": "address",
                    "name": "spender",
                    "type": "address"
                },
                {
                    "internalType": "uint256",
                    "name": "value",
                    "type": "uint256"
                },
                {
                    "internalType": "uint256",
                    "name": "deadline",
                    "type": "uint256"
                },
                {
                    "internalType": "uint8",
                    "name": "v",
                    "type": "uint8"
                },
                {
                    "internalType": "bytes32",
                    "name": "r",
                    "type": "bytes32"
                },
                {
                    "internalType": "bytes32",
                    "name": "s",
                    "type": "bytes32"
                }
            ],
            "name": "permit",
            "outputs": [],
            "stateMutability": "nonpayable",
            "type": "function"
        },
        {
            "inputs": [],
            "name": "symbol",
            "outputs": [
                {
                    "internalType": "string",
                    "name": "",
                    "type": "string"
                }
            ],
            "stateMutability": "view",
            "type": "function"
        },
        {
            "inputs": [],
            "name": "totalSupply",
            "outputs": [
                {
                    "internalType": "uint256",
                    "name": "",
                    "type": "uint256"
                }
            ],
            "stateMutability": "view",
            "type": "function"
        },
        {
            "inputs": [
                {
                    "internalType": "address",
                    "name": "to",
                    "type": "address"
                },
                {
                    "internalType": "uint256",
                    "name": "value",
                    "type": "uint256"
                }
            ],
            "name": "transfer",
            "outputs": [
                {
                    "internalType": "bool",
                    "name": "",
                    "type": "bool"
                }
            ],
            "stateMutability": "nonpayable",
            "type": "function"
        },
        {
            "inputs": [
                {
                    "internalType": "address",
                    "name": "from",
                    "type": "address"
                },
                {
                    "internalType": "address",
                    "name": "to",
                    "type": "address"
                },
                {
                    "internalType": "uint256",
                    "name": "value",
                    "type": "uint256"
                }
            ],
            "name": "transferFrom",
            "outputs": [
                {
                    "internalType": "bool",
                    "name": "",
                    "type": "bool"
                }
            ],
            "stateMutability": "nonpayable",
            "type": "function"
        }
    ],
    "bytecode": "61016080604052346105025760408161150980380380916100208285610506565b8339810103126105025780516020909101516001600160a01b0381169081900361050257604051610052604082610506565b60108152602081016f11d85cdb195cdcc811da599d18d85c9960821b81526040519061007f604083610506565b601082526f11d85cdb195cdcc811da599d18d85c9960821b6020830152604051926100ab604085610506565b6003845262474c4760e81b6020850152604051936100ca604086610506565b60018552603160f81b60208601908152845190946001600160401b0382116104055760035490600182811c921680156104f8575b60208310146103e75781601f84931161048a575b50602090601f8311600114610424575f92610419575b50508160011b915f199060031b1c1916176003555b8051906001600160401b0382116104055760045490600182811c921680156103fb575b60208310146103e75781601f849311610379575b50602090601f8311600114610313575f92610308575b50508160011b915f199060031b1c1916176004555b6101a881610529565b610120526101b5846106b0565b61014052519020918260e05251902080610100524660a0526040519060208201927f8b73c3c69bb8fe3d512ecc4cf759cc79239f7b179b0ffacaa9a75d522b39400f8452604083015260608201524660808201523060a082015260a0815261021e60c082610506565b5190206080523060c052600880546001600160a01b03191691909117905533156102f5576002548181018091116102e157600255335f525f60205260405f208181540190556040519081525f7fddf252ad1be2c89b69c2b068fc378daa952ba7f163c4a11628f55a4df523b3ef60203393a3604051610d2090816107e9823960805181610a09015260a05181610ac6015260c051816109d3015260e05181610a5801526101005181610a7e01526101205181610287015261014051816102b00152f35b634e487b7160e01b5f52601160045260245ffd5b63ec442f0560e01b5f525f60045260245ffd5b015190505f8061018a565b60045f9081528281209350601f198516905b8181106103615750908460019594939210610349575b505050811b0160045561019f565b01515f1960f88460031b161c191690555f808061033b565b92936020600181928786015181550195019301610325565b60045f529091507f8a35acfbc15ff81a39ae7d344fd709f28e8600b4aa8c65c6b64bfe7fe36bd19b601f840160051c810191602085106103dd575b90601f859493920160051c01905b8181106103cf5750610174565b5f81558493506001016103c2565b90915081906103b4565b634e487b7160e01b5f52602260045260245ffd5b91607f1691610160565b634e487b7160e01b5f52604160045260245ffd5b015190505f80610128565b60035f9081528281209350601f198516905b818110610472575090846001959493921061045a575b505050811b0160035561013d565b01515f1960f88460031b161c191690555f808061044c565b92936020600181928786015181550195019301610436565b60035f529091507fc2575a0e9e593c00f959f8c92f12db2869c3395a3b0502d05e2516446f71f85b601f840160051c810191602085106104ee575b90601f859493920160051c01905b8181106104e05750610112565b5f81558493506001016104d3565b90915081906104c5565b91607f16916100fe565b5f80fd5b601f909101601f19168101906001600160401b0382119082101761040557604052565b908151602081105f146105a3575090601f815111610563576020815191015160208210610554571790565b5f198260200360031b1b161790565b604460209160405192839163305a27a960e01b83528160048401528051918291826024860152018484015e5f828201840152601f01601f19168101030190fd5b6001600160401b03811161040557600554600181811c911680156106a6575b60208210146103e757601f8111610673575b50602092601f821160011461061257928192935f92610607575b50508160011b915f199060031b1c19161760055560ff90565b015190505f806105ee565b601f1982169360055f52805f20915f5b86811061065b5750836001959610610643575b505050811b0160055560ff90565b01515f1960f88460031b161c191690555f8080610635565b91926020600181928685015181550194019201610622565b60055f52601f60205f20910160051c810190601f830160051c015b81811061069b57506105d4565b5f815560010161068e565b90607f16906105c2565b908151602081105f146106db575090601f815111610563576020815191015160208210610554571790565b6001600160401b03811161040557600654600181811c911680156107de575b60208210146103e757601f81116107ab575b50602092601f821160011461074a57928192935f9261073f575b50508160011b915f199060031b1c19161760065560ff90565b015190505f80610726565b601f1982169360065f52805f20915f5b868110610793575083600195961061077b575b505050811b0160065560ff90565b01515f1960f88460031b161c191690555f808061076d565b9192602060018192868501518155019401920161075a565b60065f52601f60205f20910160051c810190601f830160051c015b8181106107d3575061070c565b5f81556001016107c6565b90607f16906106fa56fe6080806040526004361015610012575f80fd5b5f3560e01c90816306fdde03146105cc57508063095ea7b3146105a657806318160ddd1461058957806319ac1342146104f357806323b872dd14610413578063313ce567146103f85780633644e515146103d657806370a082311461039f5780637ecebe001461036757806384b0196e1461026f57806395d89b411461018d578063a9059cbb1461015c578063d505accf1461013d578063dd62ed3e146100ed5763f645d4f9146100c1575f80fd5b346100e9575f3660031901126100e9576008546040516001600160a01b039091168152602090f35b5f80fd5b346100e95760403660031901126100e957610106610692565b61010e6106a8565b6001600160a01b039182165f908152600160209081526040808320949093168252928352819020549051908152f35b346100e95761015a61014e366106be565b95949094939193610801565b005b346100e95760403660031901126100e957610182610178610692565b6024359033610913565b602060405160018152f35b346100e9575f3660031901126100e9576040515f6004546101ad81610712565b808452906001811690811561024b57506001146101ed575b6101e9836101d5818503826107cb565b60405191829160208352602083019061066e565b0390f35b60045f9081527f8a35acfbc15ff81a39ae7d344fd709f28e8600b4aa8c65c6b64bfe7fe36bd19b939250905b808210610231575090915081016020016101d56101c5565b919260018160209254838588010152019101909291610219565b60ff191660208086019190915291151560051b840190910191506101d590506101c5565b346100e9575f3660031901126100e95761030b6102ab7f0000000000000000000000000000000000000000000000000000000000000000610b4f565b6102d47f0000000000000000000000000000000000000000000000000000000000000000610bb2565b6020610319604051926102e783856107cb565b5f84525f368137604051958695600f60f81b875260e08588015260e087019061066e565b90858203604087015261066e565b4660608501523060808501525f60a085015283810360c08501528180845192838152019301915f5b82811061035057505050500390f35b835185528695509381019392810192600101610341565b346100e95760203660031901126100e9576001600160a01b03610388610692565b165f526007602052602060405f2054604051908152f35b346100e95760203660031901126100e9576001600160a01b036103c0610692565b165f525f602052602060405f2054604051908152f35b346100e9575f3660031901126100e95760206103f06109d0565b604051908152f35b346100e9575f3660031901126100e957602060405160128152f35b346100e95760603660031901126100e95761042c610692565b6104346106a8565b6001600160a01b0382165f818152600160208181526040808420338552909152909120549193604435939290918101610473575b506101829350610913565b8381106104d85784156104c55733156104b257610182945f52600160205260405f2060018060a01b0333165f526020528360405f209103905584610468565b634a1406b160e11b5f525f60045260245ffd5b63e602df0560e01b5f525f60045260245ffd5b8390637dc7a0d960e11b5f523360045260245260445260645ffd5b346100e957610501366106be565b6008549095919492939291906001600160a01b031633036105255761015a96610801565b60405162461bcd60e51b815260206004820152603660248201527f46756e6374696f6e2063616e206f6e6c7920696e766f6b656420627920666f726044820152751dd85c99195c8a1c1c9bde1e4a4818dbdb9d1c9858dd60521b6064820152608490fd5b346100e9575f3660031901126100e9576020600254604051908152f35b346100e95760403660031901126100e9576101826105c2610692565b6024359033610aec565b346100e9575f3660031901126100e9575f6003546105e981610712565b808452906001811690811561024b5750600114610610576101e9836101d5818503826107cb565b60035f9081527fc2575a0e9e593c00f959f8c92f12db2869c3395a3b0502d05e2516446f71f85b939250905b808210610654575090915081016020016101d56101c5565b91926001816020925483858801015201910190929161063c565b805180835260209291819084018484015e5f828201840152601f01601f1916010190565b600435906001600160a01b03821682036100e957565b602435906001600160a01b03821682036100e957565b60e09060031901126100e9576004356001600160a01b03811681036100e957906024356001600160a01b03811681036100e95790604435906064359060843560ff811681036100e9579060a4359060c43590565b90600182811c92168015610740575b602083101461072c57565b634e487b7160e01b5f52602260045260245ffd5b91607f1691610721565b5f929181549161075983610712565b80835292600181169081156107ae575060011461077557505050565b5f9081526020812093945091925b838310610794575060209250010190565b600181602092949394548385870101520191019190610783565b915050602093945060ff929192191683830152151560051b010190565b90601f8019910116810190811067ffffffffffffffff8211176107ed57604052565b634e487b7160e01b5f52604160045260245ffd5b929695949194939093874211610900576108cb926108c292604260018060a01b038716809b815f52600760205260405f20908154916001830190556040519160208301937f6e71edae12b1b97f4d1f60370fef10105fa2faae0126114a169c64845d6126c98552604084015260018060a01b038c1660608401528c608084015260a083015260c082015260c0815261089a60e0826107cb565b5190206108a56109d0565b906040519161190160f01b83526002830152602282015220610be9565b90929192610c76565b6001600160a01b03168581036108e957506108e7939450610aec565b565b85906325c0072360e11b5f5260045260245260445ffd5b8763313c898160e11b5f5260045260245ffd5b6001600160a01b03169081156109bd576001600160a01b03169182156109aa57815f525f60205260405f205481811061099157817fddf252ad1be2c89b69c2b068fc378daa952ba7f163c4a11628f55a4df523b3ef92602092855f525f84520360405f2055845f525f825260405f20818154019055604051908152a3565b8263391434e360e21b5f5260045260245260445260645ffd5b63ec442f0560e01b5f525f60045260245ffd5b634b637e8f60e11b5f525f60045260245ffd5b307f00000000000000000000000000000000000000000000000000000000000000006001600160a01b03161480610ac3575b15610a2b577f000000000000000000000000000000000000000000000000000000000000000090565b60405160208101907f8b73c3c69bb8fe3d512ecc4cf759cc79239f7b179b0ffacaa9a75d522b39400f82527f000000000000000000000000000000000000000000000000000000000000000060408201527f000000000000000000000000000000000000000000000000000000000000000060608201524660808201523060a082015260a08152610abd60c0826107cb565b51902090565b507f00000000000000000000000000000000000000000000000000000000000000004614610a02565b6001600160a01b03169081156104c5576001600160a01b03169182156104b25760207f8c5be1e5ebec7d5bd14f71427d1e84f3dd0314c0f7b2291e5b200ac8c7c3b92591835f526001825260405f20855f5282528060405f2055604051908152a3565b60ff8114610b955760ff811690601f8211610b865760405191610b736040846107cb565b6020808452838101919036833783525290565b632cd44ac360e21b5f5260045ffd5b50604051610baf81610ba881600561074a565b03826107cb565b90565b60ff8114610bd65760ff811690601f8211610b865760405191610b736040846107cb565b50604051610baf81610ba881600661074a565b91907f7fffffffffffffffffffffffffffffff5d576e7357a4501ddfe92f46681b20a08411610c6b579160209360809260ff5f9560405194855216868401526040830152606082015282805260015afa15610c60575f516001600160a01b03811615610c5657905f905f90565b505f906001905f90565b6040513d5f823e3d90fd5b5050505f9160039190565b6004811015610cd65780610c88575050565b60018103610c9f5763f645eedf60e01b5f5260045ffd5b60028103610cba575063fce698f760e01b5f5260045260245ffd5b600314610cc45750565b6335e2f38360e21b5f5260045260245ffd5b634e487b7160e01b5f52602160045260245ffdfea264697066735822122063936862d9d8a5580d4e6ecb9d7fff6b6720ee7f3003050441c48fdecb6c7fd664736f6c634300081a0033",
    "sourcePath": "/home/z/Dev/gasless_gc/contracts/contracts/Token.sol",
    "compiler": {
        "name": "solc",
        "version": "0.8.26+commit.8a97fa7a"
    },
    "functionHashes": {
        "DOMAIN_SEPARATOR()": "3644e515",
        "allowance(address,address)": "dd62ed3e",
        "approve(address,uint256)": "095ea7b3",
        "balanceOf(address)": "70a08231",
        "callTransfer(address,address,uint256,uint256,uint8,bytes32,bytes32)": "19ac1342",
        "decimals()": "313ce567",
        "eip712Domain()": "84b0196e",
        "forwarder()": "f645d4f9",
        "name()": "06fdde03",
        "nonces(address)": "7ecebe00",
        "permit(address,address,uint256,uint256,uint8,bytes32,bytes32)": "d505accf",
        "symbol()": "95d89b41",
        "totalSupply()": "18160ddd",
        "transfer(address,uint256)": "a9059cbb",
        "transferFrom(address,address,uint256)": "23b872dd"
    },
    "gasEstimates": {
        "creation": {
            "codeDepositCost": "672000",
            "executionCost": "infinite",
            "totalCost": "infinite"
        },
        "external": {
            "DOMAIN_SEPARATOR()": "infinite",
            "allowance(address,address)": "2859",
            "approve(address,uint256)": "24372",
            "balanceOf(address)": "2559",
            "callTransfer(address,address,uint256,uint256,uint8,bytes32,bytes32)": "infinite",
            "decimals()": "263",
            "eip712Domain()": "infinite",
            "forwarder()": "2585",
            "name()": "infinite",
            "nonces(address)": "2582",
            "permit(address,address,uint256,uint256,uint8,bytes32,bytes32)": "infinite",
            "symbol()": "infinite",
            "totalSupply()": "2300",
            "transfer(address,uint256)": "50996",
            "transferFrom(address,address,uint256)": "75549"
        }
    }
}